:040000008A11112828
:10000800FE00030E83120313A3000408A4000A08C9
:10001800A5007F08A6008A1125288A111328AB019C
:10002800AC01AD01AE01AF01B001B101B2018A115D
:1000380005218A11B3008A110621B40083018A11AF
:1000480076288C1E4A28320803194328A701A70AD4
:100058003108A100A2012108A200A101210822045F
:10006800031D3A281A08031D3A28A7012708A100EA
:10007800A2012108AD002208AE00B20149281A08E1
:10008800A1002108B100B201B20A9A018B1C6628AE
:100098008B100630A2003030A100A10B5128A20B12
:1000A8005128000083120313861C60280130AF0713
:1000B8000318B00A00306528FF30AF070318B00AEC
:1000C800FF30B0078A11DA208A1183120313260839
:1000D800FF0025088A0024088400230E8300FE0EF2
:1000E8007E0E0900FF30831603138500FF3086005B
:1000F800FF308700891009100811881186148312AF
:100108000313081188118316031318111930990065
:1001180018128312031398178316031301170B166B
:100128008C160B178B1783120313181318168B10C2
:100138008910091083120313310803199E28310806
:10014800A900AA012908AB002A08AC00B1018A114C
:10015800AF208A119E28831203132C08803AA80026
:100168003008803A2802031DBB282F082B020318E9
:10017800C228831203130811881508008312031379
:100188003008803AA8002C08803A2802031DCE289F
:100198002B082F020318D52883120313881108157A
:1001A800080083120313081188110800831203132F
:1001B8002C08803AA0003008803A2002031DE62867
:1001C8002F082B020318ED28831203130811881532
:1001D8000800831203133008803AA0002C08803AE4
:1001E8002002031DF9282B082F0203180029831267
:1001F80003138811081508008312031308118811C6
:0602080008000A34003476
:02400E0079FD3A
:00000001FF
